{
  "contractName": "ManageCertificate",
  "abi": [
    {
      "inputs": [],
      "stateMutability": "nonpayable",
      "type": "constructor"
    },
    {
      "anonymous": false,
      "inputs": [
        {
          "indexed": false,
          "internalType": "address",
          "name": "studentId",
          "type": "address"
        },
        {
          "indexed": false,
          "internalType": "address",
          "name": "schoolId",
          "type": "address"
        },
        {
          "indexed": false,
          "internalType": "string",
          "name": "ipfsId",
          "type": "string"
        }
      ],
      "name": "CertificateEmited",
      "type": "event"
    },
    {
      "anonymous": false,
      "inputs": [
        {
          "indexed": false,
          "internalType": "address",
          "name": "schoolId",
          "type": "address"
        }
      ],
      "name": "schoolRegistered",
      "type": "event"
    },
    {
      "anonymous": false,
      "inputs": [
        {
          "indexed": false,
          "internalType": "address",
          "name": "studentId",
          "type": "address"
        },
        {
          "indexed": false,
          "internalType": "address",
          "name": "schoolId",
          "type": "address"
        }
      ],
      "name": "studentRegistered",
      "type": "event"
    },
    {
      "inputs": [
        {
          "internalType": "address",
          "name": "",
          "type": "address"
        },
        {
          "internalType": "address",
          "name": "",
          "type": "address"
        }
      ],
      "name": "certificateAccess",
      "outputs": [
        {
          "internalType": "bool",
          "name": "",
          "type": "bool"
        }
      ],
      "stateMutability": "view",
      "type": "function",
      "constant": true
    },
    {
      "inputs": [
        {
          "internalType": "address",
          "name": "",
          "type": "address"
        }
      ],
      "name": "isSchool",
      "outputs": [
        {
          "internalType": "bool",
          "name": "",
          "type": "bool"
        }
      ],
      "stateMutability": "view",
      "type": "function",
      "constant": true
    },
    {
      "inputs": [
        {
          "internalType": "address",
          "name": "",
          "type": "address"
        }
      ],
      "name": "isStudent",
      "outputs": [
        {
          "internalType": "bool",
          "name": "",
          "type": "bool"
        }
      ],
      "stateMutability": "view",
      "type": "function",
      "constant": true
    },
    {
      "inputs": [
        {
          "internalType": "address",
          "name": "schoolId",
          "type": "address"
        }
      ],
      "name": "registerSchool",
      "outputs": [],
      "stateMutability": "nonpayable",
      "type": "function"
    },
    {
      "inputs": [
        {
          "internalType": "address",
          "name": "studentId",
          "type": "address"
        }
      ],
      "name": "registerStudent",
      "outputs": [],
      "stateMutability": "nonpayable",
      "type": "function"
    },
    {
      "inputs": [
        {
          "internalType": "address",
          "name": "studentId",
          "type": "address"
        },
        {
          "internalType": "string",
          "name": "ipfsIdDocument",
          "type": "string"
        }
      ],
      "name": "emiteCertificate",
      "outputs": [],
      "stateMutability": "nonpayable",
      "type": "function"
    },
    {
      "inputs": [
        {
          "internalType": "address",
          "name": "addr",
          "type": "address"
        }
      ],
      "name": "allowAccess",
      "outputs": [],
      "stateMutability": "nonpayable",
      "type": "function"
    },
    {
      "inputs": [
        {
          "internalType": "address",
          "name": "addr",
          "type": "address"
        }
      ],
      "name": "removeAccess",
      "outputs": [],
      "stateMutability": "nonpayable",
      "type": "function"
    },
    {
      "inputs": [
        {
          "internalType": "address",
          "name": "studentId",
          "type": "address"
        },
        {
          "internalType": "address",
          "name": "schoolId",
          "type": "address"
        }
      ],
      "name": "getCertificates",
      "outputs": [
        {
          "components": [
            {
              "internalType": "address",
              "name": "studentId",
              "type": "address"
            },
            {
              "internalType": "address",
              "name": "schoolId",
              "type": "address"
            },
            {
              "internalType": "string",
              "name": "ipfsId",
              "type": "string"
            }
          ],
          "internalType": "struct ManageCertificate.Certificate[]",
          "name": "",
          "type": "tuple[]"
        }
      ],
      "stateMutability": "view",
      "type": "function",
      "constant": true
    }
  ],
  "bytecode": "0x608060405234801561001057600080fd5b50336000806101000a81548173ffffffffffffffffffffffffffffffffffffffff021916908373ffffffffffffffffffffffffffffffffffffffff160217905550611637806100606000396000f3fe608060405234801561001057600080fd5b50600436106100935760003560e01c806371d276511161006657806371d276511461013057806382f7d392146101605780638823da6c14610190578063c4a85bc1146101ac578063c7573e82146101c857610093565b8063103bec8f1461009857806341c98078146100c857806344e50e04146100e457806344f0f61c14610114575b600080fd5b6100b260048036038101906100ad9190610f62565b6101e4565b6040516100bf9190611387565b60405180910390f35b6100e260048036038101906100dd9190610f9e565b6104dd565b005b6100fe60048036038101906100f99190610f62565b61080a565b60405161010b91906113a9565b60405180910390f35b61012e60048036038101906101299190610f39565b610839565b005b61014a60048036038101906101459190610f39565b610959565b60405161015791906113a9565b60405180910390f35b61017a60048036038101906101759190610f39565b610979565b60405161018791906113a9565b60405180910390f35b6101aa60048036038101906101a59190610f39565b610999565b005b6101c660048036038101906101c19190610f39565b610abd565b005b6101e260048036038101906101dd9190610f39565b610be1565b005b6060600560008473ffffffffffffffffffffffffffffffffffffffff1673ffffffffffffffffffffffffffffffffffffffff16815260200190815260200160002060003373ffffffffffffffffffffffffffffffffffffffff1673ffffffffffffffffffffffffffffffffffffffff16815260200190815260200160002060009054906101000a900460ff166102af576040517f08c379a00000000000000000000000000000000000000000000000000000000081526004016102a6906113c4565b60405180910390fd5b6060600460008573ffffffffffffffffffffffffffffffffffffffff1673ffffffffffffffffffffffffffffffffffffffff16815260200190815260200160002060008473ffffffffffffffffffffffffffffffffffffffff1673ffffffffffffffffffffffffffffffffffffffff168152602001908152602001600020805480602002602001604051908101604052809291908181526020016000905b828210156104cd57838290600052602060002090600302016040518060600160405290816000820160009054906101000a900473ffffffffffffffffffffffffffffffffffffffff1673ffffffffffffffffffffffffffffffffffffffff1673ffffffffffffffffffffffffffffffffffffffff1681526020016001820160009054906101000a900473ffffffffffffffffffffffffffffffffffffffff1673ffffffffffffffffffffffffffffffffffffffff1673ffffffffffffffffffffffffffffffffffffffff168152602001600282018054600181600116156101000203166002900480601f0160208091040260200160405190810160405280929190818152602001828054600181600116156101000203166002900480156104b55780601f1061048a576101008083540402835291602001916104b5565b820191906000526020600020905b81548152906001019060200180831161049857829003601f168201915b5050505050815250508152602001906001019061034d565b5050505090508091505092915050565b600160003373ffffffffffffffffffffffffffffffffffffffff1673ffffffffffffffffffffffffffffffffffffffff16815260200190815260200160002060009054906101000a900460ff16610569576040517f08c379a000000000000000000000000000000000000000000000000000000000815260040161056090611404565b60405180910390fd5b600360003373ffffffffffffffffffffffffffffffffffffffff1673ffffffffffffffffffffffffffffffffffffffff16815260200190815260200160002060008373ffffffffffffffffffffffffffffffffffffffff1673ffffffffffffffffffffffffffffffffffffffff16815260200190815260200160002060009054906101000a900460ff16610632576040517f08c379a000000000000000000000000000000000000000000000000000000000815260040161062990611444565b60405180910390fd5b600460008373ffffffffffffffffffffffffffffffffffffffff1673ffffffffffffffffffffffffffffffffffffffff16815260200190815260200160002060003373ffffffffffffffffffffffffffffffffffffffff1673ffffffffffffffffffffffffffffffffffffffff16815260200190815260200160002060405180606001604052808473ffffffffffffffffffffffffffffffffffffffff1681526020013373ffffffffffffffffffffffffffffffffffffffff16815260200183815250908060018154018082558091505060019003906000526020600020906003020160009091909190915060008201518160000160006101000a81548173ffffffffffffffffffffffffffffffffffffffff021916908373ffffffffffffffffffffffffffffffffffffffff16021790555060208201518160010160006101000a81548173ffffffffffffffffffffffffffffffffffffffff021916908373ffffffffffffffffffffffffffffffffffffffff16021790555060408201518160020190805190602001906107c8929190610e2b565b5050507f83594fda7fbfa5277cd0ad9ecb8b751731e81c70c11e08f4a863dee4f9f7db3d8233836040516107fe93929190611349565b60405180910390a15050565b60056020528160005260406000206020528060005260406000206000915091509054906101000a900460ff1681565b6000809054906101000a900473ffffffffffffffffffffffffffffffffffffffff1673ffffffffffffffffffffffffffffffffffffffff163373ffffffffffffffffffffffffffffffffffffffff16146108c8576040517f08c379a00000000000000000000000000000000000000000000000000000000081526004016108bf90611424565b60405180910390fd5b60018060008373ffffffffffffffffffffffffffffffffffffffff1673ffffffffffffffffffffffffffffffffffffffff16815260200190815260200160002060006101000a81548160ff0219169083151502179055507f51fbdb9e53149009618e5394a24a73dd8f884b5ccd944c47cef7614b80f797b28160405161094e9190611305565b60405180910390a150565b60016020528060005260406000206000915054906101000a900460ff1681565b60026020528060005260406000206000915054906101000a900460ff1681565b600260003373ffffffffffffffffffffffffffffffffffffffff1673ffffffffffffffffffffffffffffffffffffffff16815260200190815260200160002060009054906101000a900460ff16610a25576040517f08c379a0000000000000000000000000000000000000000000000000000000008152600401610a1c906113e4565b60405180910390fd5b6000600560003373ffffffffffffffffffffffffffffffffffffffff1673ffffffffffffffffffffffffffffffffffffffff16815260200190815260200160002060008373ffffffffffffffffffffffffffffffffffffffff1673ffffffffffffffffffffffffffffffffffffffff16815260200190815260200160002060006101000a81548160ff02191690831515021790555050565b600260003373ffffffffffffffffffffffffffffffffffffffff1673ffffffffffffffffffffffffffffffffffffffff16815260200190815260200160002060009054906101000a900460ff16610b49576040517f08c379a0000000000000000000000000000000000000000000000000000000008152600401610b40906113e4565b60405180910390fd5b6001600560003373ffffffffffffffffffffffffffffffffffffffff1673ffffffffffffffffffffffffffffffffffffffff16815260200190815260200160002060008373ffffffffffffffffffffffffffffffffffffffff1673ffffffffffffffffffffffffffffffffffffffff16815260200190815260200160002060006101000a81548160ff02191690831515021790555050565b600160003373ffffffffffffffffffffffffffffffffffffffff1673ffffffffffffffffffffffffffffffffffffffff16815260200190815260200160002060009054906101000a900460ff16610c6d576040517f08c379a0000000000000000000000000000000000000000000000000000000008152600401610c6490611404565b60405180910390fd5b6001600360003373ffffffffffffffffffffffffffffffffffffffff1673ffffffffffffffffffffffffffffffffffffffff16815260200190815260200160002060008373ffffffffffffffffffffffffffffffffffffffff1673ffffffffffffffffffffffffffffffffffffffff16815260200190815260200160002060006101000a81548160ff0219169083151502179055506001600560008373ffffffffffffffffffffffffffffffffffffffff1673ffffffffffffffffffffffffffffffffffffffff16815260200190815260200160002060003373ffffffffffffffffffffffffffffffffffffffff1673ffffffffffffffffffffffffffffffffffffffff16815260200190815260200160002060006101000a81548160ff0219169083151502179055506001600260008373ffffffffffffffffffffffffffffffffffffffff1673ffffffffffffffffffffffffffffffffffffffff16815260200190815260200160002060006101000a81548160ff0219169083151502179055507f7e67f999cb2023549394af447f504204d9b1f4333383c25e1a5b133c290da6b58133604051610e20929190611320565b60405180910390a150565b828054600181600116156101000203166002900490600052602060002090601f016020900481019282601f10610e6c57805160ff1916838001178555610e9a565b82800160010185558215610e9a579182015b82811115610e99578251825591602001919060010190610e7e565b5b509050610ea79190610eab565b5090565b610ecd91905b80821115610ec9576000816000905550600101610eb1565b5090565b90565b600081359050610edf816115ea565b92915050565b600082601f830112610ef657600080fd5b8135610f09610f0482611491565b611464565b91508082526020830160208301858383011115610f2557600080fd5b610f30838284611597565b50505092915050565b600060208284031215610f4b57600080fd5b6000610f5984828501610ed0565b91505092915050565b60008060408385031215610f7557600080fd5b6000610f8385828601610ed0565b9250506020610f9485828601610ed0565b9150509250929050565b60008060408385031215610fb157600080fd5b6000610fbf85828601610ed0565b925050602083013567ffffffffffffffff811115610fdc57600080fd5b610fe885828601610ee5565b9150509250929050565b6000610ffe83836112b5565b905092915050565b61100f81611561565b82525050565b61101e81611523565b82525050565b61102d81611523565b82525050565b600061103e826114cd565b61104881856114f0565b93508360208202850161105a856114bd565b8060005b8581101561109657848403895281516110778582610ff2565b9450611082836114e3565b925060208a0199505060018101905061105e565b50829750879550505050505092915050565b6110b181611535565b82525050565b60006110c2826114d8565b6110cc8185611501565b93506110dc8185602086016115a6565b6110e5816115d9565b840191505092915050565b60006110fb826114d8565b6111058185611512565b93506111158185602086016115a6565b61111e816115d9565b840191505092915050565b6000611136602983611512565b91507f596f7520646f6e277420686176652061636365737320746f207468697320696e60008301527f666f726d6174696f6e00000000000000000000000000000000000000000000006020830152604082019050919050565b600061119c601c83611512565b91507f6d73672e73656e646572206973206e6f7420612073747564656e742e000000006000830152602082019050919050565b60006111dc601b83611512565b91507f6d73672e73656e646572206973206e6f742061207363686f6f6c2e00000000006000830152602082019050919050565b600061121c601983611512565b91507f6d73672e73656e646572206973206e6f742061206f776e6572000000000000006000830152602082019050919050565b600061125c602f83611512565b91507f546869732073747564656e7420646f65736e277420706172746963697061746560008301527f206f6620796f7572207363686f6f6c00000000000000000000000000000000006020830152604082019050919050565b60006060830160008301516112cd6000860182611015565b5060208301516112e06020860182611015565b50604083015184820360408601526112f882826110b7565b9150508091505092915050565b600060208201905061131a6000830184611024565b92915050565b60006040820190506113356000830185611024565b6113426020830184611006565b9392505050565b600060608201905061135e6000830186611024565b61136b6020830185611006565b818103604083015261137d81846110f0565b9050949350505050565b600060208201905081810360008301526113a18184611033565b905092915050565b60006020820190506113be60008301846110a8565b92915050565b600060208201905081810360008301526113dd81611129565b9050919050565b600060208201905081810360008301526113fd8161118f565b9050919050565b6000602082019050818103600083015261141d816111cf565b9050919050565b6000602082019050818103600083015261143d8161120f565b9050919050565b6000602082019050818103600083015261145d8161124f565b9050919050565b6000604051905081810181811067ffffffffffffffff8211171561148757600080fd5b8060405250919050565b600067ffffffffffffffff8211156114a857600080fd5b601f19601f8301169050602081019050919050565b6000819050602082019050919050565b600081519050919050565b600081519050919050565b6000602082019050919050565b600082825260208201905092915050565b600082825260208201905092915050565b600082825260208201905092915050565b600061152e82611541565b9050919050565b60008115159050919050565b600073ffffffffffffffffffffffffffffffffffffffff82169050919050565b600061156c82611573565b9050919050565b600061157e82611585565b9050919050565b600061159082611541565b9050919050565b82818337600083830152505050565b60005b838110156115c45780820151818401526020810190506115a9565b838111156115d3576000848401525b50505050565b6000601f19601f8301169050919050565b6115f381611523565b81146115fe57600080fd5b5056fea2646970667358221220dd4c6d8412ffbca92cf706b527f66b4f690b4abc455d9b4ed06f341e8028ecd364736f6c63430006080033",
  "source": "// SPDX-License-Identifier: MIT\r\npragma experimental ABIEncoderV2;\r\npragma solidity ^0.6.8;\r\n\r\ncontract ManageCertificate {\r\n\r\n    address private owner;\r\n\r\n    constructor() public {\r\n        owner = msg.sender;\r\n    }\r\n\r\n    struct Certificate {\r\n        address studentId;\r\n        address schoolId;\r\n        string ipfsId;\r\n    }\r\n    \r\n    mapping(address => bool) public isSchool;\r\n    mapping(address => bool) public isStudent;\r\n    mapping(address => mapping(address => bool)) private studentsBySchool;\r\n    mapping(address => mapping(address => Certificate[])) private certificateByStudents;\r\n    mapping(address => mapping(address => bool)) public certificateAccess;\r\n\r\n    event schoolRegistered(address schoolId);\r\n    event studentRegistered(address studentId, address schoolId);\r\n    event CertificateEmited(address studentId, address schoolId, string ipfsId);\r\n\r\n    modifier onlyOwner() {\r\n        require(msg.sender == owner, \"msg.sender is not a owner\");\r\n        _;\r\n    }\r\n\r\n    modifier onlySchool() {\r\n        require(isSchool[msg.sender], \"msg.sender is not a school.\");\r\n        _;\r\n    }\r\n\r\n    modifier onlyStudent() {\r\n        require(isStudent[msg.sender], \"msg.sender is not a student.\");\r\n        _;\r\n    }\r\n\r\n    function registerSchool(address schoolId) public onlyOwner {\r\n        isSchool[schoolId] = true;\r\n        emit schoolRegistered(schoolId);\r\n    }\r\n\r\n    function registerStudent(address studentId) public onlySchool {\r\n        studentsBySchool[msg.sender][studentId] = true;\r\n        certificateAccess[studentId][msg.sender] = true;\r\n        isStudent[studentId] = true;\r\n        emit studentRegistered(studentId, msg.sender);\r\n    }\r\n\r\n    function emiteCertificate(address studentId, string memory ipfsIdDocument) public onlySchool {\r\n        require(studentsBySchool[msg.sender][studentId], \"This student doesn't participate of your school\");\r\n        certificateByStudents[studentId][msg.sender].push(\r\n            Certificate(studentId, msg.sender, ipfsIdDocument)\r\n        );\r\n        emit CertificateEmited(studentId, msg.sender, ipfsIdDocument);\r\n    }\r\n\r\n    function allowAccess(address addr) public onlyStudent {\r\n        certificateAccess[msg.sender][addr] = true;\r\n    }\r\n\r\n    function removeAccess(address addr) public onlyStudent {\r\n        certificateAccess[msg.sender][addr] = false;\r\n    }\r\n\r\n    function getCertificates(address studentId, address schoolId) public view returns(Certificate[] memory) {\r\n        require(certificateAccess[studentId][msg.sender], \"You don't have access to this information\");\r\n        Certificate[] memory certificates = certificateByStudents[studentId][schoolId];        \r\n        return certificates;\r\n    } \r\n}\r\n",
  "sourcePath": "C:\\proj\\blockchain\\block-manageCertificates-chain\\blockchain\\contracts\\ManageCertificate.sol",
  "compiler": {
    "name": "solc",
    "version": "0.6.8+commit.0bbfe453.Emscripten.clang"
  },
  "schemaVersion": "3.0.23",
  "updatedAt": "2020-06-01T11:07:26.095Z",
  "networkType": "ethereum",
  "devdoc": {
    "methods": {}
  },
  "userdoc": {
    "methods": {}
  }
}