{
  "contractName": "ManageCertificate",
  "abi": [
    {
      "inputs": [],
      "stateMutability": "nonpayable",
      "type": "constructor"
    },
    {
      "anonymous": false,
      "inputs": [
        {
          "indexed": false,
          "internalType": "address",
          "name": "studentId",
          "type": "address"
        },
        {
          "indexed": false,
          "internalType": "address",
          "name": "schoolId",
          "type": "address"
        },
        {
          "indexed": false,
          "internalType": "string",
          "name": "ipfsId",
          "type": "string"
        }
      ],
      "name": "CertificateEmited",
      "type": "event"
    },
    {
      "anonymous": false,
      "inputs": [
        {
          "indexed": false,
          "internalType": "address",
          "name": "schoolId",
          "type": "address"
        }
      ],
      "name": "schoolRegistered",
      "type": "event"
    },
    {
      "anonymous": false,
      "inputs": [
        {
          "indexed": false,
          "internalType": "address",
          "name": "studentId",
          "type": "address"
        },
        {
          "indexed": false,
          "internalType": "address",
          "name": "schoolId",
          "type": "address"
        }
      ],
      "name": "studentRegistered",
      "type": "event"
    },
    {
      "inputs": [
        {
          "internalType": "address",
          "name": "",
          "type": "address"
        },
        {
          "internalType": "address",
          "name": "",
          "type": "address"
        }
      ],
      "name": "certificateAccess",
      "outputs": [
        {
          "internalType": "bool",
          "name": "",
          "type": "bool"
        }
      ],
      "stateMutability": "view",
      "type": "function",
      "constant": true
    },
    {
      "inputs": [
        {
          "internalType": "address",
          "name": "",
          "type": "address"
        }
      ],
      "name": "isSchool",
      "outputs": [
        {
          "internalType": "bool",
          "name": "",
          "type": "bool"
        }
      ],
      "stateMutability": "view",
      "type": "function",
      "constant": true
    },
    {
      "inputs": [
        {
          "internalType": "address",
          "name": "",
          "type": "address"
        }
      ],
      "name": "isStudent",
      "outputs": [
        {
          "internalType": "bool",
          "name": "",
          "type": "bool"
        }
      ],
      "stateMutability": "view",
      "type": "function",
      "constant": true
    },
    {
      "inputs": [],
      "name": "priceInWei",
      "outputs": [
        {
          "internalType": "uint256",
          "name": "",
          "type": "uint256"
        }
      ],
      "stateMutability": "view",
      "type": "function",
      "constant": true
    },
    {
      "inputs": [
        {
          "internalType": "uint256",
          "name": "newPrice",
          "type": "uint256"
        }
      ],
      "name": "alterPrice",
      "outputs": [],
      "stateMutability": "nonpayable",
      "type": "function"
    },
    {
      "inputs": [],
      "name": "collectEther",
      "outputs": [],
      "stateMutability": "payable",
      "type": "function",
      "payable": true
    },
    {
      "inputs": [],
      "name": "registerSchool",
      "outputs": [],
      "stateMutability": "payable",
      "type": "function",
      "payable": true
    },
    {
      "inputs": [
        {
          "internalType": "address",
          "name": "studentId",
          "type": "address"
        }
      ],
      "name": "registerStudent",
      "outputs": [],
      "stateMutability": "nonpayable",
      "type": "function"
    },
    {
      "inputs": [
        {
          "internalType": "address",
          "name": "studentId",
          "type": "address"
        },
        {
          "internalType": "string",
          "name": "ipfsIdDocument",
          "type": "string"
        }
      ],
      "name": "emiteCertificate",
      "outputs": [],
      "stateMutability": "nonpayable",
      "type": "function"
    },
    {
      "inputs": [
        {
          "internalType": "address",
          "name": "addr",
          "type": "address"
        }
      ],
      "name": "allowExternalAccess",
      "outputs": [],
      "stateMutability": "nonpayable",
      "type": "function"
    },
    {
      "inputs": [
        {
          "internalType": "address",
          "name": "addr",
          "type": "address"
        }
      ],
      "name": "removeAccess",
      "outputs": [],
      "stateMutability": "nonpayable",
      "type": "function"
    },
    {
      "inputs": [
        {
          "internalType": "address",
          "name": "studentId",
          "type": "address"
        },
        {
          "internalType": "address",
          "name": "schoolId",
          "type": "address"
        }
      ],
      "name": "getCertificates",
      "outputs": [
        {
          "components": [
            {
              "internalType": "address",
              "name": "studentId",
              "type": "address"
            },
            {
              "internalType": "address",
              "name": "schoolId",
              "type": "address"
            },
            {
              "internalType": "string",
              "name": "ipfsId",
              "type": "string"
            }
          ],
          "internalType": "struct ManageCertificate.Certificate[]",
          "name": "",
          "type": "tuple[]"
        }
      ],
      "stateMutability": "view",
      "type": "function",
      "constant": true
    }
  ],
  "bytecode": "0x608060405234801561001057600080fd5b50336000806101000a81548173ffffffffffffffffffffffffffffffffffffffff021916908373ffffffffffffffffffffffffffffffffffffffff160217905550670de0b6b3a7640000600181905550611dba8061006f6000396000f3fe6080604052600436106100a75760003560e01c806371d276511161006457806371d27651146101cc5780637ab64e351461020957806382f7d392146102135780638823da6c14610250578063c7573e8214610279578063ff11e1db146102a2576100a7565b8063103bec8f146100ac578063313bc398146100e95780633c8da5881461011257806341c980781461013d57806344e50e04146101665780635c5148eb146101a3575b600080fd5b3480156100b857600080fd5b506100d360048036038101906100ce919061140b565b6102ac565b6040516100e09190611a23565b60405180910390f35b3480156100f557600080fd5b50610110600480360381019061010b919061149b565b6105a5565b005b34801561011e57600080fd5b5061012761063e565b6040516101349190611ba0565b60405180910390f35b34801561014957600080fd5b50610164600480360381019061015f9190611447565b610644565b005b34801561017257600080fd5b5061018d6004803603810190610188919061140b565b6109e3565b60405161019a9190611a45565b60405180910390f35b3480156101af57600080fd5b506101ca60048036038101906101c591906113e2565b610a12565b005b3480156101d857600080fd5b506101f360048036038101906101ee91906113e2565b610aab565b6040516102009190611a45565b60405180910390f35b610211610acb565b005b34801561021f57600080fd5b5061023a600480360381019061023591906113e2565b610ba1565b6040516102479190611a45565b60405180910390f35b34801561025c57600080fd5b50610277600480360381019061027291906113e2565b610bc1565b005b34801561028557600080fd5b506102a0600480360381019061029b91906113e2565b610dc6565b005b6102aa611070565b005b6060600660008473ffffffffffffffffffffffffffffffffffffffff1673ffffffffffffffffffffffffffffffffffffffff16815260200190815260200160002060003373ffffffffffffffffffffffffffffffffffffffff1673ffffffffffffffffffffffffffffffffffffffff16815260200190815260200160002060009054906101000a900460ff16610377576040517f08c379a000000000000000000000000000000000000000000000000000000000815260040161036e90611a60565b60405180910390fd5b6060600560008573ffffffffffffffffffffffffffffffffffffffff1673ffffffffffffffffffffffffffffffffffffffff16815260200190815260200160002060008473ffffffffffffffffffffffffffffffffffffffff1673ffffffffffffffffffffffffffffffffffffffff168152602001908152602001600020805480602002602001604051908101604052809291908181526020016000905b8282101561059557838290600052602060002090600302016040518060600160405290816000820160009054906101000a900473ffffffffffffffffffffffffffffffffffffffff1673ffffffffffffffffffffffffffffffffffffffff1673ffffffffffffffffffffffffffffffffffffffff1681526020016001820160009054906101000a900473ffffffffffffffffffffffffffffffffffffffff1673ffffffffffffffffffffffffffffffffffffffff1673ffffffffffffffffffffffffffffffffffffffff168152602001600282018054600181600116156101000203166002900480601f01602080910402602001604051908101604052809291908181526020018280546001816001161561010002031660029004801561057d5780601f106105525761010080835404028352916020019161057d565b820191906000526020600020905b81548152906001019060200180831161056057829003601f168201915b50505050508152505081526020019060010190610415565b5050505090508091505092915050565b6000809054906101000a900473ffffffffffffffffffffffffffffffffffffffff1673ffffffffffffffffffffffffffffffffffffffff163373ffffffffffffffffffffffffffffffffffffffff1614610634576040517f08c379a000000000000000000000000000000000000000000000000000000000815260040161062b90611ae0565b60405180910390fd5b8060018190555050565b60015481565b600260003373ffffffffffffffffffffffffffffffffffffffff1673ffffffffffffffffffffffffffffffffffffffff16815260200190815260200160002060009054906101000a900460ff166106d0576040517f08c379a00000000000000000000000000000000000000000000000000000000081526004016106c790611b80565b60405180910390fd5b81600073ffffffffffffffffffffffffffffffffffffffff168173ffffffffffffffffffffffffffffffffffffffff161415610741576040517f08c379a000000000000000000000000000000000000000000000000000000000815260040161073890611ac0565b60405180910390fd5b600460003373ffffffffffffffffffffffffffffffffffffffff1673ffffffffffffffffffffffffffffffffffffffff16815260200190815260200160002060008473ffffffffffffffffffffffffffffffffffffffff1673ffffffffffffffffffffffffffffffffffffffff16815260200190815260200160002060009054906101000a900460ff1661080a576040517f08c379a000000000000000000000000000000000000000000000000000000000815260040161080190611b00565b60405180910390fd5b600560008473ffffffffffffffffffffffffffffffffffffffff1673ffffffffffffffffffffffffffffffffffffffff16815260200190815260200160002060003373ffffffffffffffffffffffffffffffffffffffff1673ffffffffffffffffffffffffffffffffffffffff16815260200190815260200160002060405180606001604052808573ffffffffffffffffffffffffffffffffffffffff1681526020013373ffffffffffffffffffffffffffffffffffffffff16815260200184815250908060018154018082558091505060019003906000526020600020906003020160009091909190915060008201518160000160006101000a81548173ffffffffffffffffffffffffffffffffffffffff021916908373ffffffffffffffffffffffffffffffffffffffff16021790555060208201518160010160006101000a81548173ffffffffffffffffffffffffffffffffffffffff021916908373ffffffffffffffffffffffffffffffffffffffff16021790555060408201518160020190805190602001906109a09291906112bf565b5050507f83594fda7fbfa5277cd0ad9ecb8b751731e81c70c11e08f4a863dee4f9f7db3d8333846040516109d6939291906119e5565b60405180910390a1505050565b60066020528160005260406000206020528060005260406000206000915091509054906101000a900460ff1681565b600360003373ffffffffffffffffffffffffffffffffffffffff1673ffffffffffffffffffffffffffffffffffffffff16815260200190815260200160002060009054906101000a900460ff16610a9e576040517f08c379a0000000000000000000000000000000000000000000000000000000008152600401610a9590611aa0565b60405180910390fd5b610aa833826111b4565b50565b60026020528060005260406000206000915054906101000a900460ff1681565b600154341015610b10576040517f08c379a0000000000000000000000000000000000000000000000000000000008152600401610b0790611b20565b60405180910390fd5b6001600260003373ffffffffffffffffffffffffffffffffffffffff1673ffffffffffffffffffffffffffffffffffffffff16815260200190815260200160002060006101000a81548160ff0219169083151502179055507f51fbdb9e53149009618e5394a24a73dd8f884b5ccd944c47cef7614b80f797b233604051610b9791906119a1565b60405180910390a1565b60036020528060005260406000206000915054906101000a900460ff1681565b600360003373ffffffffffffffffffffffffffffffffffffffff1673ffffffffffffffffffffffffffffffffffffffff16815260200190815260200160002060009054906101000a900460ff16610c4d576040517f08c379a0000000000000000000000000000000000000000000000000000000008152600401610c4490611aa0565b60405180910390fd5b80600073ffffffffffffffffffffffffffffffffffffffff168173ffffffffffffffffffffffffffffffffffffffff161415610cbe576040517f08c379a0000000000000000000000000000000000000000000000000000000008152600401610cb590611ac0565b60405180910390fd5b8173ffffffffffffffffffffffffffffffffffffffff163373ffffffffffffffffffffffffffffffffffffffff161415610d2d576040517f08c379a0000000000000000000000000000000000000000000000000000000008152600401610d2490611a80565b60405180910390fd5b6000600660003373ffffffffffffffffffffffffffffffffffffffff1673ffffffffffffffffffffffffffffffffffffffff16815260200190815260200160002060008473ffffffffffffffffffffffffffffffffffffffff1673ffffffffffffffffffffffffffffffffffffffff16815260200190815260200160002060006101000a81548160ff0219169083151502179055505050565b600260003373ffffffffffffffffffffffffffffffffffffffff1673ffffffffffffffffffffffffffffffffffffffff16815260200190815260200160002060009054906101000a900460ff16610e52576040517f08c379a0000000000000000000000000000000000000000000000000000000008152600401610e4990611b80565b60405180910390fd5b80600073ffffffffffffffffffffffffffffffffffffffff168173ffffffffffffffffffffffffffffffffffffffff161415610ec3576040517f08c379a0000000000000000000000000000000000000000000000000000000008152600401610eba90611ac0565b60405180910390fd5b8173ffffffffffffffffffffffffffffffffffffffff163373ffffffffffffffffffffffffffffffffffffffff161415610f32576040517f08c379a0000000000000000000000000000000000000000000000000000000008152600401610f2990611b60565b60405180910390fd5b6001600460003373ffffffffffffffffffffffffffffffffffffffff1673ffffffffffffffffffffffffffffffffffffffff16815260200190815260200160002060008473ffffffffffffffffffffffffffffffffffffffff1673ffffffffffffffffffffffffffffffffffffffff16815260200190815260200160002060006101000a81548160ff021916908315150217905550610fd182336111b4565b610fdb82836111b4565b6001600360008473ffffffffffffffffffffffffffffffffffffffff1673ffffffffffffffffffffffffffffffffffffffff16815260200190815260200160002060006101000a81548160ff0219169083151502179055507f7e67f999cb2023549394af447f504204d9b1f4333383c25e1a5b133c290da6b582336040516110649291906119bc565b60405180910390a15050565b6000809054906101000a900473ffffffffffffffffffffffffffffffffffffffff1673ffffffffffffffffffffffffffffffffffffffff163373ffffffffffffffffffffffffffffffffffffffff16146110ff576040517f08c379a00000000000000000000000000000000000000000000000000000000081526004016110f690611ae0565b60405180910390fd5b600047905060003373ffffffffffffffffffffffffffffffffffffffff168260405161112a9061198c565b60006040518083038185875af1925050503d8060008114611167576040519150601f19603f3d011682016040523d82523d6000602084013e61116c565b606091505b50509050806111b0576040517f08c379a00000000000000000000000000000000000000000000000000000000081526004016111a790611b40565b60405180910390fd5b5050565b80600073ffffffffffffffffffffffffffffffffffffffff168173ffffffffffffffffffffffffffffffffffffffff161415611225576040517f08c379a000000000000000000000000000000000000000000000000000000000815260040161121c90611ac0565b60405180910390fd5b6001600660008573ffffffffffffffffffffffffffffffffffffffff1673ffffffffffffffffffffffffffffffffffffffff16815260200190815260200160002060008473ffffffffffffffffffffffffffffffffffffffff1673ffffffffffffffffffffffffffffffffffffffff16815260200190815260200160002060006101000a81548160ff021916908315150217905550505050565b828054600181600116156101000203166002900490600052602060002090601f016020900481019282601f1061130057805160ff191683800117855561132e565b8280016001018555821561132e579182015b8281111561132d578251825591602001919060010190611312565b5b50905061133b919061133f565b5090565b61136191905b8082111561135d576000816000905550600101611345565b5090565b90565b60008135905061137381611d56565b92915050565b600082601f83011261138a57600080fd5b813561139d61139882611be8565b611bbb565b915080825260208301602083018583830111156113b957600080fd5b6113c4838284611d03565b50505092915050565b6000813590506113dc81611d6d565b92915050565b6000602082840312156113f457600080fd5b600061140284828501611364565b91505092915050565b6000806040838503121561141e57600080fd5b600061142c85828601611364565b925050602061143d85828601611364565b9150509250929050565b6000806040838503121561145a57600080fd5b600061146885828601611364565b925050602083013567ffffffffffffffff81111561148557600080fd5b61149185828601611379565b9150509250929050565b6000602082840312156114ad57600080fd5b60006114bb848285016113cd565b91505092915050565b60006114d0838361192d565b905092915050565b6114e181611ccd565b82525050565b6114f081611c85565b82525050565b6114ff81611c85565b82525050565b600061151082611c24565b61151a8185611c47565b93508360208202850161152c85611c14565b8060005b85811015611568578484038952815161154985826114c4565b945061155483611c3a565b925060208a01995050600181019050611530565b50829750879550505050505092915050565b61158381611c97565b82525050565b600061159482611c2f565b61159e8185611c63565b93506115ae818560208601611d12565b6115b781611d45565b840191505092915050565b60006115cd82611c2f565b6115d78185611c74565b93506115e7818560208601611d12565b6115f081611d45565b840191505092915050565b6000611608602983611c74565b91507f596f7520646f6e277420686176652061636365737320746f207468697320696e60008301527f666f726d6174696f6e00000000000000000000000000000000000000000000006020830152604082019050919050565b600061166e601e83611c74565b91507f596f752063616e206e6f742072656d6f766520796f75722061636365737300006000830152602082019050919050565b60006116ae601683611c74565b91507f796f7520617265206e6f7420612073747564656e742e000000000000000000006000830152602082019050919050565b60006116ee600f83611c74565b91507f496e76616c6964206164647265737300000000000000000000000000000000006000830152602082019050919050565b600061172e601383611c74565b91507f796f7520617265206e6f742061206f776e6572000000000000000000000000006000830152602082019050919050565b600061176e602f83611c74565b91507f546869732073747564656e7420646f65736e277420706172746963697061746560008301527f206f6620796f7572207363686f6f6c00000000000000000000000000000000006020830152604082019050919050565b60006117d4602c83611c74565b91507f7468652076616c7565206973206e6f7420656e6f75676820666f72207468697360008301527f207472616e73616374696f6e00000000000000000000000000000000000000006020830152604082019050919050565b600061183a600083611c58565b9150600082019050919050565b6000611854601083611c74565b91507f5472616e73666572206661696c65642e000000000000000000000000000000006000830152602082019050919050565b6000611894602883611c74565b91507f596f752063616e277420726567697374657220796f757273656c66206c696b6560008301527f2073747564656e740000000000000000000000000000000000000000000000006020830152604082019050919050565b60006118fa601583611c74565b91507f796f7520617265206e6f742061207363686f6f6c2e00000000000000000000006000830152602082019050919050565b600060608301600083015161194560008601826114e7565b50602083015161195860208601826114e7565b50604083015184820360408601526119708282611589565b9150508091505092915050565b61198681611cc3565b82525050565b60006119978261182d565b9150819050919050565b60006020820190506119b660008301846114d8565b92915050565b60006040820190506119d160008301856114f6565b6119de60208301846114d8565b9392505050565b60006060820190506119fa60008301866114f6565b611a0760208301856114d8565b8181036040830152611a1981846115c2565b9050949350505050565b60006020820190508181036000830152611a3d8184611505565b905092915050565b6000602082019050611a5a600083018461157a565b92915050565b60006020820190508181036000830152611a79816115fb565b9050919050565b60006020820190508181036000830152611a9981611661565b9050919050565b60006020820190508181036000830152611ab9816116a1565b9050919050565b60006020820190508181036000830152611ad9816116e1565b9050919050565b60006020820190508181036000830152611af981611721565b9050919050565b60006020820190508181036000830152611b1981611761565b9050919050565b60006020820190508181036000830152611b39816117c7565b9050919050565b60006020820190508181036000830152611b5981611847565b9050919050565b60006020820190508181036000830152611b7981611887565b9050919050565b60006020820190508181036000830152611b99816118ed565b9050919050565b6000602082019050611bb5600083018461197d565b92915050565b6000604051905081810181811067ffffffffffffffff82111715611bde57600080fd5b8060405250919050565b600067ffffffffffffffff821115611bff57600080fd5b601f19601f8301169050602081019050919050565b6000819050602082019050919050565b600081519050919050565b600081519050919050565b6000602082019050919050565b600082825260208201905092915050565b600081905092915050565b600082825260208201905092915050565b600082825260208201905092915050565b6000611c9082611ca3565b9050919050565b60008115159050919050565b600073ffffffffffffffffffffffffffffffffffffffff82169050919050565b6000819050919050565b6000611cd882611cdf565b9050919050565b6000611cea82611cf1565b9050919050565b6000611cfc82611ca3565b9050919050565b82818337600083830152505050565b60005b83811015611d30578082015181840152602081019050611d15565b83811115611d3f576000848401525b50505050565b6000601f19601f8301169050919050565b611d5f81611c85565b8114611d6a57600080fd5b50565b611d7681611cc3565b8114611d8157600080fd5b5056fea2646970667358221220f0f69d6a44a081978869d2f9d3a3cc9be77b0b93180e2387de17042d9d2f37aa64736f6c63430006080033",
  "source": "// SPDX-License-Identifier: MIT\r\npragma experimental ABIEncoderV2;\r\npragma solidity ^0.6.8;\r\n\r\n\r\ncontract ManageCertificate {\r\n    address private owner;\r\n    uint256 public priceInWei;\r\n\r\n    constructor() public {\r\n        owner = msg.sender;\r\n        priceInWei = 1000000000000000000;\r\n    }\r\n\r\n    struct Certificate {\r\n        address studentId;\r\n        address schoolId;\r\n        string ipfsId;\r\n    }\r\n    \r\n    mapping(address => bool) public isSchool;\r\n    mapping(address => bool) public isStudent;\r\n    mapping(address => mapping(address => bool)) private studentsBySchool;\r\n    mapping(address => mapping(address => Certificate[])) private certificateByStudents;\r\n    mapping(address => mapping(address => bool)) public certificateAccess;\r\n\r\n    event schoolRegistered(address schoolId);\r\n    event studentRegistered(address studentId, address schoolId);\r\n    event CertificateEmited(address studentId, address schoolId, string ipfsId);\r\n\r\n    modifier onlyOwner() {\r\n        require(msg.sender == owner, \"you are not a owner\");\r\n        _;\r\n    }\r\n\r\n    modifier onlySchool() {\r\n        require(isSchool[msg.sender], \"you are not a school.\");\r\n        _;\r\n    }\r\n\r\n    modifier onlyStudent() {\r\n        require(isStudent[msg.sender], \"you are not a student.\");\r\n        _;\r\n    }\r\n\r\n    modifier correctAddress(address addr) {\r\n        require(addr != address(0x0), \"Invalid address\");\r\n        _;\r\n    }\r\n\r\n    function alterPrice(uint256 newPrice) public onlyOwner {\r\n        priceInWei = newPrice;\r\n    }\r\n\r\n    function collectEther() public payable onlyOwner {\r\n        uint256 balance = address(this).balance;\r\n        (bool success, ) = msg.sender.call{value: balance}(\"\");\r\n        require(success, \"Transfer failed.\");\r\n    }\r\n\r\n    function registerSchool() public payable {\r\n        require(msg.value >= priceInWei, 'the value is not enough for this transaction');\r\n\r\n        isSchool[msg.sender] = true;\r\n        emit schoolRegistered(msg.sender);\r\n    }\r\n\r\n    function registerStudent(address studentId) public onlySchool correctAddress(studentId) {\r\n        require(msg.sender != studentId, \"You can't register yourself like student\");\r\n\r\n        studentsBySchool[msg.sender][studentId] = true;\r\n        allowAccess(studentId, msg.sender);\r\n        allowAccess(studentId, studentId);\r\n        isStudent[studentId] = true;\r\n        emit studentRegistered(studentId, msg.sender);\r\n    }\r\n\r\n    function emiteCertificate(address studentId, string memory ipfsIdDocument) public onlySchool correctAddress(studentId) {\r\n        require(studentsBySchool[msg.sender][studentId], \"This student doesn't participate of your school\");\r\n        \r\n        certificateByStudents[studentId][msg.sender].push(\r\n            Certificate(studentId, msg.sender, ipfsIdDocument)\r\n        );\r\n        emit CertificateEmited(studentId, msg.sender, ipfsIdDocument);\r\n    }\r\n\r\n    function allowExternalAccess(address addr) public onlyStudent\r\n    {\r\n        allowAccess(msg.sender, addr);\r\n    }\r\n\r\n    function allowAccess(address studentId, address addr) internal correctAddress(addr) {\r\n        certificateAccess[studentId][addr] = true;\r\n    }\r\n\r\n    function removeAccess(address addr) public onlyStudent correctAddress(addr) {\r\n        require(msg.sender != addr, \"You can not remove your access\");\r\n        certificateAccess[msg.sender][addr] = false;\r\n    }\r\n\r\n    function getCertificates(address studentId, address schoolId) public view returns (Certificate[] memory) {\r\n        require(certificateAccess[studentId][msg.sender], \"You don't have access to this information\");\r\n\r\n        Certificate[] memory certificates = certificateByStudents[studentId][schoolId];\r\n        return certificates;\r\n    }\r\n}\r\n",
  "sourcePath": "C:\\proj\\blockchain\\block-manageCertificates-chain\\blockchain\\contracts\\ManageCertificate.sol",
  "compiler": {
    "name": "solc",
    "version": "0.6.8+commit.0bbfe453.Emscripten.clang"
  },
  "schemaVersion": "3.0.23",
  "updatedAt": "2020-06-04T10:43:43.912Z",
  "networkType": "ethereum",
  "devdoc": {
    "methods": {}
  },
  "userdoc": {
    "methods": {}
  }
}