{
  "contractName": "ManageCertificate",
  "abi": [
    {
      "inputs": [],
      "stateMutability": "nonpayable",
      "type": "constructor"
    },
    {
      "anonymous": false,
      "inputs": [
        {
          "indexed": false,
          "internalType": "address",
          "name": "studentId",
          "type": "address"
        },
        {
          "indexed": false,
          "internalType": "address",
          "name": "schoolId",
          "type": "address"
        },
        {
          "indexed": false,
          "internalType": "string",
          "name": "ipfsId",
          "type": "string"
        }
      ],
      "name": "CertificateEmited",
      "type": "event"
    },
    {
      "anonymous": false,
      "inputs": [
        {
          "indexed": false,
          "internalType": "address",
          "name": "schoolId",
          "type": "address"
        }
      ],
      "name": "schoolRegistered",
      "type": "event"
    },
    {
      "anonymous": false,
      "inputs": [
        {
          "indexed": false,
          "internalType": "address",
          "name": "studentId",
          "type": "address"
        },
        {
          "indexed": false,
          "internalType": "address",
          "name": "schoolId",
          "type": "address"
        }
      ],
      "name": "studentRegistered",
      "type": "event"
    },
    {
      "inputs": [
        {
          "internalType": "address",
          "name": "",
          "type": "address"
        },
        {
          "internalType": "address",
          "name": "",
          "type": "address"
        }
      ],
      "name": "certificateAccess",
      "outputs": [
        {
          "internalType": "bool",
          "name": "",
          "type": "bool"
        }
      ],
      "stateMutability": "view",
      "type": "function",
      "constant": true
    },
    {
      "inputs": [
        {
          "internalType": "address",
          "name": "",
          "type": "address"
        }
      ],
      "name": "isSchool",
      "outputs": [
        {
          "internalType": "bool",
          "name": "",
          "type": "bool"
        }
      ],
      "stateMutability": "view",
      "type": "function",
      "constant": true
    },
    {
      "inputs": [
        {
          "internalType": "address",
          "name": "",
          "type": "address"
        }
      ],
      "name": "isStudent",
      "outputs": [
        {
          "internalType": "bool",
          "name": "",
          "type": "bool"
        }
      ],
      "stateMutability": "view",
      "type": "function",
      "constant": true
    },
    {
      "inputs": [],
      "name": "priceInWei",
      "outputs": [
        {
          "internalType": "uint256",
          "name": "",
          "type": "uint256"
        }
      ],
      "stateMutability": "view",
      "type": "function",
      "constant": true
    },
    {
      "inputs": [
        {
          "internalType": "uint256",
          "name": "newPrice",
          "type": "uint256"
        }
      ],
      "name": "alterPrice",
      "outputs": [],
      "stateMutability": "nonpayable",
      "type": "function"
    },
    {
      "inputs": [],
      "name": "collectEther",
      "outputs": [],
      "stateMutability": "payable",
      "type": "function",
      "payable": true
    },
    {
      "inputs": [],
      "name": "registerSchool",
      "outputs": [],
      "stateMutability": "payable",
      "type": "function",
      "payable": true
    },
    {
      "inputs": [
        {
          "internalType": "address",
          "name": "studentId",
          "type": "address"
        }
      ],
      "name": "registerStudent",
      "outputs": [],
      "stateMutability": "nonpayable",
      "type": "function"
    },
    {
      "inputs": [
        {
          "internalType": "address",
          "name": "studentId",
          "type": "address"
        },
        {
          "internalType": "string",
          "name": "ipfsIdDocument",
          "type": "string"
        }
      ],
      "name": "emiteCertificate",
      "outputs": [],
      "stateMutability": "nonpayable",
      "type": "function"
    },
    {
      "inputs": [
        {
          "internalType": "address",
          "name": "addr",
          "type": "address"
        }
      ],
      "name": "allowExternalAccess",
      "outputs": [],
      "stateMutability": "nonpayable",
      "type": "function"
    },
    {
      "inputs": [
        {
          "internalType": "address",
          "name": "addr",
          "type": "address"
        }
      ],
      "name": "removeAccess",
      "outputs": [],
      "stateMutability": "nonpayable",
      "type": "function"
    },
    {
      "inputs": [
        {
          "internalType": "address",
          "name": "studentId",
          "type": "address"
        },
        {
          "internalType": "address",
          "name": "schoolId",
          "type": "address"
        }
      ],
      "name": "getCertificates",
      "outputs": [
        {
          "components": [
            {
              "internalType": "address",
              "name": "studentId",
              "type": "address"
            },
            {
              "internalType": "address",
              "name": "schoolId",
              "type": "address"
            },
            {
              "internalType": "string",
              "name": "ipfsId",
              "type": "string"
            }
          ],
          "internalType": "struct ManageCertificate.Certificate[]",
          "name": "",
          "type": "tuple[]"
        }
      ],
      "stateMutability": "view",
      "type": "function",
      "constant": true
    }
  ],
  "bytecode": "0x608060405234801561001057600080fd5b50336000806101000a81548173ffffffffffffffffffffffffffffffffffffffff021916908373ffffffffffffffffffffffffffffffffffffffff160217905550670de0b6b3a7640000600181905550611c688061006f6000396000f3fe6080604052600436106100a75760003560e01c806371d276511161006457806371d27651146101cc5780637ab64e351461020957806382f7d392146102135780638823da6c14610250578063c7573e8214610279578063ff11e1db146102a2576100a7565b8063103bec8f146100ac578063313bc398146100e95780633c8da5881461011257806341c980781461013d57806344e50e04146101665780635c5148eb146101a3575b600080fd5b3480156100b857600080fd5b506100d360048036038101906100ce9190611319565b6102ac565b6040516100e091906118f1565b60405180910390f35b3480156100f557600080fd5b50610110600480360381019061010b91906113a9565b6105a5565b005b34801561011e57600080fd5b5061012761063e565b6040516101349190611a4e565b60405180910390f35b34801561014957600080fd5b50610164600480360381019061015f9190611355565b610644565b005b34801561017257600080fd5b5061018d60048036038101906101889190611319565b6109e2565b60405161019a9190611913565b60405180910390f35b3480156101af57600080fd5b506101ca60048036038101906101c591906112f0565b610a11565b005b3480156101d857600080fd5b506101f360048036038101906101ee91906112f0565b610aa9565b6040516102009190611913565b60405180910390f35b610211610ac9565b005b34801561021f57600080fd5b5061023a600480360381019061023591906112f0565b610b9f565b6040516102479190611913565b60405180910390f35b34801561025c57600080fd5b50610277600480360381019061027291906112f0565b610bbf565b005b34801561028557600080fd5b506102a0600480360381019061029b91906112f0565b610d54565b005b6102aa610f80565b005b6060600660008473ffffffffffffffffffffffffffffffffffffffff1673ffffffffffffffffffffffffffffffffffffffff16815260200190815260200160002060003373ffffffffffffffffffffffffffffffffffffffff1673ffffffffffffffffffffffffffffffffffffffff16815260200190815260200160002060009054906101000a900460ff16610377576040517f08c379a000000000000000000000000000000000000000000000000000000000815260040161036e9061192e565b60405180910390fd5b6060600560008573ffffffffffffffffffffffffffffffffffffffff1673ffffffffffffffffffffffffffffffffffffffff16815260200190815260200160002060008473ffffffffffffffffffffffffffffffffffffffff1673ffffffffffffffffffffffffffffffffffffffff168152602001908152602001600020805480602002602001604051908101604052809291908181526020016000905b8282101561059557838290600052602060002090600302016040518060600160405290816000820160009054906101000a900473ffffffffffffffffffffffffffffffffffffffff1673ffffffffffffffffffffffffffffffffffffffff1673ffffffffffffffffffffffffffffffffffffffff1681526020016001820160009054906101000a900473ffffffffffffffffffffffffffffffffffffffff1673ffffffffffffffffffffffffffffffffffffffff1673ffffffffffffffffffffffffffffffffffffffff168152602001600282018054600181600116156101000203166002900480601f01602080910402602001604051908101604052809291908181526020018280546001816001161561010002031660029004801561057d5780601f106105525761010080835404028352916020019161057d565b820191906000526020600020905b81548152906001019060200180831161056057829003601f168201915b50505050508152505081526020019060010190610415565b5050505090508091505092915050565b6000809054906101000a900473ffffffffffffffffffffffffffffffffffffffff1673ffffffffffffffffffffffffffffffffffffffff163373ffffffffffffffffffffffffffffffffffffffff1614610634576040517f08c379a000000000000000000000000000000000000000000000000000000000815260040161062b9061198e565b60405180910390fd5b8060018190555050565b60015481565b600260003373ffffffffffffffffffffffffffffffffffffffff1673ffffffffffffffffffffffffffffffffffffffff16815260200190815260200160002060009054906101000a900460ff166106d0576040517f08c379a00000000000000000000000000000000000000000000000000000000081526004016106c790611a2e565b60405180910390fd5b81600073ffffffffffffffffffffffffffffffffffffffff168173ffffffffffffffffffffffffffffffffffffffff1614610740576040517f08c379a00000000000000000000000000000000000000000000000000000000081526004016107379061196e565b60405180910390fd5b600460003373ffffffffffffffffffffffffffffffffffffffff1673ffffffffffffffffffffffffffffffffffffffff16815260200190815260200160002060008473ffffffffffffffffffffffffffffffffffffffff1673ffffffffffffffffffffffffffffffffffffffff16815260200190815260200160002060009054906101000a900460ff16610809576040517f08c379a0000000000000000000000000000000000000000000000000000000008152600401610800906119ae565b60405180910390fd5b600560008473ffffffffffffffffffffffffffffffffffffffff1673ffffffffffffffffffffffffffffffffffffffff16815260200190815260200160002060003373ffffffffffffffffffffffffffffffffffffffff1673ffffffffffffffffffffffffffffffffffffffff16815260200190815260200160002060405180606001604052808573ffffffffffffffffffffffffffffffffffffffff1681526020013373ffffffffffffffffffffffffffffffffffffffff16815260200184815250908060018154018082558091505060019003906000526020600020906003020160009091909190915060008201518160000160006101000a81548173ffffffffffffffffffffffffffffffffffffffff021916908373ffffffffffffffffffffffffffffffffffffffff16021790555060208201518160010160006101000a81548173ffffffffffffffffffffffffffffffffffffffff021916908373ffffffffffffffffffffffffffffffffffffffff160217905550604082015181600201908051906020019061099f9291906111cd565b5050507f83594fda7fbfa5277cd0ad9ecb8b751731e81c70c11e08f4a863dee4f9f7db3d8333846040516109d5939291906118b3565b60405180910390a1505050565b60066020528160005260406000206020528060005260406000206000915091509054906101000a900460ff1681565b600360003373ffffffffffffffffffffffffffffffffffffffff1673ffffffffffffffffffffffffffffffffffffffff16815260200190815260200160002060009054906101000a900460ff16610a9d576040517f08c379a0000000000000000000000000000000000000000000000000000000008152600401610a949061194e565b60405180910390fd5b610aa6816110c4565b50565b60026020528060005260406000206000915054906101000a900460ff1681565b600154341015610b0e576040517f08c379a0000000000000000000000000000000000000000000000000000000008152600401610b05906119ce565b60405180910390fd5b6001600260003373ffffffffffffffffffffffffffffffffffffffff1673ffffffffffffffffffffffffffffffffffffffff16815260200190815260200160002060006101000a81548160ff0219169083151502179055507f51fbdb9e53149009618e5394a24a73dd8f884b5ccd944c47cef7614b80f797b233604051610b95919061186f565b60405180910390a1565b60036020528060005260406000206000915054906101000a900460ff1681565b600360003373ffffffffffffffffffffffffffffffffffffffff1673ffffffffffffffffffffffffffffffffffffffff16815260200190815260200160002060009054906101000a900460ff16610c4b576040517f08c379a0000000000000000000000000000000000000000000000000000000008152600401610c429061194e565b60405180910390fd5b80600073ffffffffffffffffffffffffffffffffffffffff168173ffffffffffffffffffffffffffffffffffffffff1614610cbb576040517f08c379a0000000000000000000000000000000000000000000000000000000008152600401610cb29061196e565b60405180910390fd5b6000600660003373ffffffffffffffffffffffffffffffffffffffff1673ffffffffffffffffffffffffffffffffffffffff16815260200190815260200160002060008473ffffffffffffffffffffffffffffffffffffffff1673ffffffffffffffffffffffffffffffffffffffff16815260200190815260200160002060006101000a81548160ff0219169083151502179055505050565b600260003373ffffffffffffffffffffffffffffffffffffffff1673ffffffffffffffffffffffffffffffffffffffff16815260200190815260200160002060009054906101000a900460ff16610de0576040517f08c379a0000000000000000000000000000000000000000000000000000000008152600401610dd790611a2e565b60405180910390fd5b8073ffffffffffffffffffffffffffffffffffffffff163373ffffffffffffffffffffffffffffffffffffffff1614610e4e576040517f08c379a0000000000000000000000000000000000000000000000000000000008152600401610e4590611a0e565b60405180910390fd5b6001600460003373ffffffffffffffffffffffffffffffffffffffff1673ffffffffffffffffffffffffffffffffffffffff16815260200190815260200160002060008373ffffffffffffffffffffffffffffffffffffffff1673ffffffffffffffffffffffffffffffffffffffff16815260200190815260200160002060006101000a81548160ff021916908315150217905550610eec336110c4565b6001600360008373ffffffffffffffffffffffffffffffffffffffff1673ffffffffffffffffffffffffffffffffffffffff16815260200190815260200160002060006101000a81548160ff0219169083151502179055507f7e67f999cb2023549394af447f504204d9b1f4333383c25e1a5b133c290da6b58133604051610f7592919061188a565b60405180910390a150565b6000809054906101000a900473ffffffffffffffffffffffffffffffffffffffff1673ffffffffffffffffffffffffffffffffffffffff163373ffffffffffffffffffffffffffffffffffffffff161461100f576040517f08c379a00000000000000000000000000000000000000000000000000000000081526004016110069061198e565b60405180910390fd5b600047905060003373ffffffffffffffffffffffffffffffffffffffff168260405161103a9061185a565b60006040518083038185875af1925050503d8060008114611077576040519150601f19603f3d011682016040523d82523d6000602084013e61107c565b606091505b50509050806110c0576040517f08c379a00000000000000000000000000000000000000000000000000000000081526004016110b7906119ee565b60405180910390fd5b5050565b80600073ffffffffffffffffffffffffffffffffffffffff168173ffffffffffffffffffffffffffffffffffffffff1614611134576040517f08c379a000000000000000000000000000000000000000000000000000000000815260040161112b9061196e565b60405180910390fd5b6001600660003373ffffffffffffffffffffffffffffffffffffffff1673ffffffffffffffffffffffffffffffffffffffff16815260200190815260200160002060008473ffffffffffffffffffffffffffffffffffffffff1673ffffffffffffffffffffffffffffffffffffffff16815260200190815260200160002060006101000a81548160ff0219169083151502179055505050565b828054600181600116156101000203166002900490600052602060002090601f016020900481019282601f1061120e57805160ff191683800117855561123c565b8280016001018555821561123c579182015b8281111561123b578251825591602001919060010190611220565b5b509050611249919061124d565b5090565b61126f91905b8082111561126b576000816000905550600101611253565b5090565b90565b60008135905061128181611c04565b92915050565b600082601f83011261129857600080fd5b81356112ab6112a682611a96565b611a69565b915080825260208301602083018583830111156112c757600080fd5b6112d2838284611bb1565b50505092915050565b6000813590506112ea81611c1b565b92915050565b60006020828403121561130257600080fd5b600061131084828501611272565b91505092915050565b6000806040838503121561132c57600080fd5b600061133a85828601611272565b925050602061134b85828601611272565b9150509250929050565b6000806040838503121561136857600080fd5b600061137685828601611272565b925050602083013567ffffffffffffffff81111561139357600080fd5b61139f85828601611287565b9150509250929050565b6000602082840312156113bb57600080fd5b60006113c9848285016112db565b91505092915050565b60006113de83836117fb565b905092915050565b6113ef81611b7b565b82525050565b6113fe81611b33565b82525050565b61140d81611b33565b82525050565b600061141e82611ad2565b6114288185611af5565b93508360208202850161143a85611ac2565b8060005b85811015611476578484038952815161145785826113d2565b945061146283611ae8565b925060208a0199505060018101905061143e565b50829750879550505050505092915050565b61149181611b45565b82525050565b60006114a282611add565b6114ac8185611b11565b93506114bc818560208601611bc0565b6114c581611bf3565b840191505092915050565b60006114db82611add565b6114e58185611b22565b93506114f5818560208601611bc0565b6114fe81611bf3565b840191505092915050565b6000611516602983611b22565b91507f596f7520646f6e277420686176652061636365737320746f207468697320696e60008301527f666f726d6174696f6e00000000000000000000000000000000000000000000006020830152604082019050919050565b600061157c601683611b22565b91507f796f7520617265206e6f7420612073747564656e742e000000000000000000006000830152602082019050919050565b60006115bc600f83611b22565b91507f496e76616c6964206164647265737300000000000000000000000000000000006000830152602082019050919050565b60006115fc601383611b22565b91507f796f7520617265206e6f742061206f776e6572000000000000000000000000006000830152602082019050919050565b600061163c602f83611b22565b91507f546869732073747564656e7420646f65736e277420706172746963697061746560008301527f206f6620796f7572207363686f6f6c00000000000000000000000000000000006020830152604082019050919050565b60006116a2602c83611b22565b91507f7468652076616c7565206973206e6f7420656e6f75676820666f72207468697360008301527f207472616e73616374696f6e00000000000000000000000000000000000000006020830152604082019050919050565b6000611708600083611b06565b9150600082019050919050565b6000611722601083611b22565b91507f5472616e73666572206661696c65642e000000000000000000000000000000006000830152602082019050919050565b6000611762602883611b22565b91507f596f752063616e277420726567697374657220796f757273656c66206c696b6560008301527f2073747564656e740000000000000000000000000000000000000000000000006020830152604082019050919050565b60006117c8601583611b22565b91507f796f7520617265206e6f742061207363686f6f6c2e00000000000000000000006000830152602082019050919050565b600060608301600083015161181360008601826113f5565b50602083015161182660208601826113f5565b506040830151848203604086015261183e8282611497565b9150508091505092915050565b61185481611b71565b82525050565b6000611865826116fb565b9150819050919050565b600060208201905061188460008301846113e6565b92915050565b600060408201905061189f6000830185611404565b6118ac60208301846113e6565b9392505050565b60006060820190506118c86000830186611404565b6118d560208301856113e6565b81810360408301526118e781846114d0565b9050949350505050565b6000602082019050818103600083015261190b8184611413565b905092915050565b60006020820190506119286000830184611488565b92915050565b6000602082019050818103600083015261194781611509565b9050919050565b600060208201905081810360008301526119678161156f565b9050919050565b60006020820190508181036000830152611987816115af565b9050919050565b600060208201905081810360008301526119a7816115ef565b9050919050565b600060208201905081810360008301526119c78161162f565b9050919050565b600060208201905081810360008301526119e781611695565b9050919050565b60006020820190508181036000830152611a0781611715565b9050919050565b60006020820190508181036000830152611a2781611755565b9050919050565b60006020820190508181036000830152611a47816117bb565b9050919050565b6000602082019050611a63600083018461184b565b92915050565b6000604051905081810181811067ffffffffffffffff82111715611a8c57600080fd5b8060405250919050565b600067ffffffffffffffff821115611aad57600080fd5b601f19601f8301169050602081019050919050565b6000819050602082019050919050565b600081519050919050565b600081519050919050565b6000602082019050919050565b600082825260208201905092915050565b600081905092915050565b600082825260208201905092915050565b600082825260208201905092915050565b6000611b3e82611b51565b9050919050565b60008115159050919050565b600073ffffffffffffffffffffffffffffffffffffffff82169050919050565b6000819050919050565b6000611b8682611b8d565b9050919050565b6000611b9882611b9f565b9050919050565b6000611baa82611b51565b9050919050565b82818337600083830152505050565b60005b83811015611bde578082015181840152602081019050611bc3565b83811115611bed576000848401525b50505050565b6000601f19601f8301169050919050565b611c0d81611b33565b8114611c1857600080fd5b50565b611c2481611b71565b8114611c2f57600080fd5b5056fea26469706673582212209e24c66b3b9ac72b42c7b1ca914ff1e1a392b1bc1a6e885e64a4ed91c8f0392464736f6c63430006080033",
  "source": "// SPDX-License-Identifier: MIT\r\npragma experimental ABIEncoderV2;\r\npragma solidity ^0.6.8;\r\n\r\n\r\ncontract ManageCertificate {\r\n    address private owner;\r\n    uint256 public priceInWei;\r\n\r\n    constructor() public {\r\n        owner = msg.sender;\r\n        priceInWei = 1000000000000000000;\r\n    }\r\n\r\n    struct Certificate {\r\n        address studentId;\r\n        address schoolId;\r\n        string ipfsId;\r\n    }\r\n    \r\n    mapping(address => bool) public isSchool;\r\n    mapping(address => bool) public isStudent;\r\n    mapping(address => mapping(address => bool)) private studentsBySchool;\r\n    mapping(address => mapping(address => Certificate[])) private certificateByStudents;\r\n    mapping(address => mapping(address => bool)) public certificateAccess;\r\n\r\n    event schoolRegistered(address schoolId);\r\n    event studentRegistered(address studentId, address schoolId);\r\n    event CertificateEmited(address studentId, address schoolId, string ipfsId);\r\n\r\n    modifier onlyOwner() {\r\n        require(msg.sender == owner, \"you are not a owner\");\r\n        _;\r\n    }\r\n\r\n    modifier onlySchool() {\r\n        require(isSchool[msg.sender], \"you are not a school.\");\r\n        _;\r\n    }\r\n\r\n    modifier onlyStudent() {\r\n        require(isStudent[msg.sender], \"you are not a student.\");\r\n        _;\r\n    }\r\n\r\n    modifier correctAddress(address addr) {\r\n        require(addr == address(0x0), \"Invalid address\");\r\n        _;\r\n    }\r\n\r\n    function alterPrice(uint256 newPrice) public onlyOwner {\r\n        priceInWei = newPrice;\r\n    }\r\n\r\n    function collectEther() public payable onlyOwner {\r\n        uint256 balance = address(this).balance;\r\n        (bool success, ) = msg.sender.call{value: balance}(\"\");\r\n        require(success, \"Transfer failed.\");\r\n    }\r\n\r\n    function registerSchool() public payable {\r\n        require(msg.value >= priceInWei, 'the value is not enough for this transaction');\r\n\r\n        isSchool[msg.sender] = true;\r\n        emit schoolRegistered(msg.sender);\r\n    }\r\n\r\n    function registerStudent(address studentId) public onlySchool {\r\n        require(msg.sender == studentId, \"You can't register yourself like student\");\r\n\r\n        studentsBySchool[msg.sender][studentId] = true;\r\n        allowAccess(msg.sender);\r\n        isStudent[studentId] = true;\r\n        emit studentRegistered(studentId, msg.sender);\r\n    }\r\n\r\n    function emiteCertificate(address studentId, string memory ipfsIdDocument) public onlySchool correctAddress(studentId) {\r\n        require(studentsBySchool[msg.sender][studentId], \"This student doesn't participate of your school\");\r\n        \r\n        certificateByStudents[studentId][msg.sender].push(\r\n            Certificate(studentId, msg.sender, ipfsIdDocument)\r\n        );\r\n        emit CertificateEmited(studentId, msg.sender, ipfsIdDocument);\r\n    }\r\n\r\n    function allowExternalAccess(address addr) public onlyStudent\r\n    {\r\n        allowAccess(addr);\r\n    }\r\n\r\n    function allowAccess(address addr) internal correctAddress(addr) {\r\n        certificateAccess[msg.sender][addr] = true;\r\n    }\r\n\r\n    function removeAccess(address addr) public onlyStudent correctAddress(addr) {\r\n        certificateAccess[msg.sender][addr] = false;\r\n    }\r\n\r\n    function getCertificates(address studentId, address schoolId) public view returns (Certificate[] memory) {\r\n        require(certificateAccess[studentId][msg.sender], \"You don't have access to this information\");\r\n\r\n        Certificate[] memory certificates = certificateByStudents[studentId][schoolId];\r\n        return certificates;\r\n    }\r\n}\r\n",
  "sourcePath": "C:\\proj\\blockchain\\block-manageCertificates-chain\\blockchain\\contracts\\ManageCertificate.sol",
  "compiler": {
    "name": "solc",
    "version": "0.6.8+commit.0bbfe453.Emscripten.clang"
  },
  "schemaVersion": "3.0.23",
  "updatedAt": "2020-06-03T17:57:51.399Z",
  "networkType": "ethereum",
  "devdoc": {
    "methods": {}
  },
  "userdoc": {
    "methods": {}
  }
}